{
  "contractName": "dPanc",
  "abi": [
    {
      "anonymous": false,
      "inputs": [
        {
          "indexed": true,
          "name": "_from",
          "type": "address"
        },
        {
          "indexed": false,
          "name": "_dbAddress",
          "type": "string"
        }
      ],
      "name": "UserRegister",
      "type": "event"
    },
    {
      "constant": false,
      "inputs": [
        {
          "name": "_dbAddress",
          "type": "string"
        }
      ],
      "name": "registerUser",
      "outputs": [],
      "payable": false,
      "stateMutability": "nonpayable",
      "type": "function"
    },
    {
      "constant": true,
      "inputs": [],
      "name": "getDbAddress",
      "outputs": [
        {
          "name": "",
          "type": "string"
        }
      ],
      "payable": false,
      "stateMutability": "view",
      "type": "function"
    },
    {
      "constant": false,
      "inputs": [],
      "name": "deleteUser",
      "outputs": [],
      "payable": false,
      "stateMutability": "nonpayable",
      "type": "function"
    }
  ],
  "bytecode": "0x608060405234801561001057600080fd5b50610664806100206000396000f300608060405260043610610057576000357c0100000000000000000000000000000000000000000000000000000000900463ffffffff168063026ff05e1461005c578063445a796e14610073578063704f1b941461009e575b600080fd5b34801561006857600080fd5b506100716100c7565b005b34801561007f57600080fd5b50610088610189565b6040516100959190610531565b60405180910390f35b3480156100aa57600080fd5b506100c560048036036100c09190810190610483565b61026a565b005b60206040519081016040528060008152506000803373ffffffffffffffffffffffffffffffffffffffff1673ffffffffffffffffffffffffffffffffffffffff168152602001908152602001600020600101908051906020019061012c929190610388565b5060008060003373ffffffffffffffffffffffffffffffffffffffff1673ffffffffffffffffffffffffffffffffffffffff16815260200190815260200160002060000160006101000a81548160ff021916908315150217905550565b60606000803373ffffffffffffffffffffffffffffffffffffffff1673ffffffffffffffffffffffffffffffffffffffff1681526020019081526020016000206001018054600181600116156101000203166002900480601f0160208091040260200160405190810160405280929190818152602001828054600181600116156101000203166002900480156102605780601f1061023557610100808354040283529160200191610260565b820191906000526020600020905b81548152906001019060200180831161024357829003601f168201915b5050505050905090565b60008060003373ffffffffffffffffffffffffffffffffffffffff1673ffffffffffffffffffffffffffffffffffffffff16815260200190815260200160002090508060000160009054906101000a900460ff16151515610300576040517f08c379a00000000000000000000000000000000000000000000000000000000081526004016102f790610553565b60405180910390fd5b81816001019080519060200190610318929190610388565b5060018160000160006101000a81548160ff0219169083151502179055503373ffffffffffffffffffffffffffffffffffffffff167f4578d2996968543afa1dfb0791664b8fb16108663190bcf1f68e698c4589db198360405161037c9190610531565b60405180910390a25050565b828054600181600116156101000203166002900490600052602060002090601f016020900481019282601f106103c957805160ff19168380011785556103f7565b828001600101855582156103f7579182015b828111156103f65782518255916020019190600101906103db565b5b5090506104049190610408565b5090565b61042a91905b8082111561042657600081600090555060010161040e565b5090565b90565b600082601f830112151561044057600080fd5b813561045361044e826105a0565b610573565b9150808252602083016020830185838301111561046f57600080fd5b61047a8382846105d7565b50505092915050565b60006020828403121561049557600080fd5b600082013567ffffffffffffffff8111156104af57600080fd5b6104bb8482850161042d565b91505092915050565b60006104cf826105cc565b8084526104e38160208601602086016105e6565b6104ec81610619565b602085010191505092915050565b6000601682527f757365722d64622d616c72656164792d657869737473000000000000000000006020830152604082019050919050565b6000602082019050818103600083015261054b81846104c4565b905092915050565b6000602082019050818103600083015261056c816104fa565b9050919050565b6000604051905081810181811067ffffffffffffffff8211171561059657600080fd5b8060405250919050565b600067ffffffffffffffff8211156105b757600080fd5b601f19601f8301169050602081019050919050565b600081519050919050565b82818337600083830152505050565b60005b838110156106045780820151818401526020810190506105e9565b83811115610613576000848401525b50505050565b6000601f19601f83011690509190505600a265627a7a72305820f645b5f63301fa16222753a8538499cacb38a3027b68ec1fdb728386b84e9f5f6c6578706572696d656e74616cf50037",
  "source": "pragma solidity ^0.4.24;\npragma experimental ABIEncoderV2;\n\ncontract dPanc {\n\n  event UserRegister (\n    address indexed _from,\n    string _dbAddress\n  );\n\n  struct UserDb {\n      bool exists;\n      string dbAddress;\n  }\n\n  mapping(address => UserDb) addressToDb;\n\n  function registerUser(string _dbAddress) public {\n      UserDb storage userDb = addressToDb[msg.sender];\n\n      // Error if user address already has db address saved\n      require(!userDb.exists, 'user-db-already-exists');\n\n      userDb.dbAddress = _dbAddress;\n      userDb.exists = true;\n\n      emit UserRegister(msg.sender, _dbAddress);\n  }\n\n  function getDbAddress() public view returns (string) {\n      return addressToDb[msg.sender].dbAddress;\n  }\n  \n  function deleteUser() public {\n      addressToDb[msg.sender].dbAddress = \"\";\n      addressToDb[msg.sender].exists = false;\n  }\n}",
  "sourcePath": "/Users/kelu/ethereum/dPanc/contracts/contracts/dPanc.sol",
  "compiler": {
    "name": "solc",
    "version": "0.4.24+commit.e67f0147.Emscripten.clang"
  },
  "schemaVersion": "2.0.1",
  "updatedAt": "2018-10-04T04:42:56.523Z"
}