{
  "contractName": "dPanc",
  "abi": [
    {
      "anonymous": false,
      "inputs": [
        {
          "indexed": true,
          "name": "_from",
          "type": "address"
        },
        {
          "indexed": false,
          "name": "_dbAddress",
          "type": "string"
        }
      ],
      "name": "UserRegister",
      "type": "event"
    },
    {
      "constant": false,
      "inputs": [
        {
          "name": "_addr",
          "type": "address"
        },
        {
          "name": "_dbAddress",
          "type": "string"
        }
      ],
      "name": "registerUser",
      "outputs": [],
      "payable": false,
      "stateMutability": "nonpayable",
      "type": "function"
    },
    {
      "constant": true,
      "inputs": [
        {
          "name": "_addr",
          "type": "address"
        }
      ],
      "name": "getDbAddress",
      "outputs": [
        {
          "name": "",
          "type": "string"
        }
      ],
      "payable": false,
      "stateMutability": "view",
      "type": "function"
    },
    {
      "constant": false,
      "inputs": [
        {
          "name": "_addr",
          "type": "address"
        }
      ],
      "name": "deleteUser",
      "outputs": [],
      "payable": false,
      "stateMutability": "nonpayable",
      "type": "function"
    }
  ],
  "bytecode": "0x608060405234801561001057600080fd5b506106fc806100206000396000f300608060405260043610610057576000357c0100000000000000000000000000000000000000000000000000000000900463ffffffff1680630ea126f91461005c5780635addf6bd146100855780635c60f226146100c2575b600080fd5b34801561006857600080fd5b50610083600480360361007e91908101906104e8565b6100eb565b005b34801561009157600080fd5b506100ac60048036036100a791908101906104bf565b61020a565b6040516100b991906105a9565b60405180910390f35b3480156100ce57600080fd5b506100e960048036036100e491908101906104bf565b6102ed565b005b60008060008473ffffffffffffffffffffffffffffffffffffffff1673ffffffffffffffffffffffffffffffffffffffff16815260200190815260200160002090508060000160009054906101000a900460ff16151515610181576040517f08c379a0000000000000000000000000000000000000000000000000000000008152600401610178906105cb565b60405180910390fd5b818160010190805190602001906101999291906103b0565b5060018160000160006101000a81548160ff0219169083151502179055508273ffffffffffffffffffffffffffffffffffffffff167f4578d2996968543afa1dfb0791664b8fb16108663190bcf1f68e698c4589db19836040516101fd91906105a9565b60405180910390a2505050565b60606000808373ffffffffffffffffffffffffffffffffffffffff1673ffffffffffffffffffffffffffffffffffffffff1681526020019081526020016000206001018054600181600116156101000203166002900480601f0160208091040260200160405190810160405280929190818152602001828054600181600116156101000203166002900480156102e15780601f106102b6576101008083540402835291602001916102e1565b820191906000526020600020905b8154815290600101906020018083116102c457829003601f168201915b50505050509050919050565b60206040519081016040528060008152506000808373ffffffffffffffffffffffffffffffffffffffff1673ffffffffffffffffffffffffffffffffffffffff16815260200190815260200160002060010190805190602001906103529291906103b0565b5060008060008373ffffffffffffffffffffffffffffffffffffffff1673ffffffffffffffffffffffffffffffffffffffff16815260200190815260200160002060000160006101000a81548160ff02191690831515021790555050565b828054600181600116156101000203166002900490600052602060002090601f016020900481019282601f106103f157805160ff191683800117855561041f565b8280016001018555821561041f579182015b8281111561041e578251825591602001919060010190610403565b5b50905061042c9190610430565b5090565b61045291905b8082111561044e576000816000905550600101610436565b5090565b90565b6000610461823561064f565b905092915050565b600082601f830112151561047c57600080fd5b813561048f61048a82610618565b6105eb565b915080825260208301602083018583830111156104ab57600080fd5b6104b683828461066f565b50505092915050565b6000602082840312156104d157600080fd5b60006104df84828501610455565b91505092915050565b600080604083850312156104fb57600080fd5b600061050985828601610455565b925050602083013567ffffffffffffffff81111561052657600080fd5b61053285828601610469565b9150509250929050565b600061054782610644565b80845261055b81602086016020860161067e565b610564816106b1565b602085010191505092915050565b6000601682527f757365722d64622d616c72656164792d657869737473000000000000000000006020830152604082019050919050565b600060208201905081810360008301526105c3818461053c565b905092915050565b600060208201905081810360008301526105e481610572565b9050919050565b6000604051905081810181811067ffffffffffffffff8211171561060e57600080fd5b8060405250919050565b600067ffffffffffffffff82111561062f57600080fd5b601f19601f8301169050602081019050919050565b600081519050919050565b600073ffffffffffffffffffffffffffffffffffffffff82169050919050565b82818337600083830152505050565b60005b8381101561069c578082015181840152602081019050610681565b838111156106ab576000848401525b50505050565b6000601f19601f83011690509190505600a265627a7a72305820177a74aed66629e5d36513827ce8cd683f3c7ba0938fc3cd4b6d8d0aeea199046c6578706572696d656e74616cf50037",
  "source": "pragma solidity ^0.4.24;\npragma experimental ABIEncoderV2;\n\ncontract dPanc {\n\n  event UserRegister (\n    address indexed _from,\n    string _dbAddress\n  );\n\n  struct UserDb {\n      bool exists;\n      string dbAddress;\n  }\n\n  mapping(address => UserDb) addressToDb;\n\n  function registerUser(address _addr, string _dbAddress) public {\n      UserDb storage userDb = addressToDb[_addr];\n\n      // Error if user address already has db address saved\n      require(!userDb.exists, 'user-db-already-exists');\n\n      userDb.dbAddress = _dbAddress;\n      userDb.exists = true;\n\n      emit UserRegister(_addr, _dbAddress);\n  }\n\n  function getDbAddress(address _addr) public view returns (string) {\n      return addressToDb[_addr].dbAddress;\n  }\n  \n  function deleteUser(address _addr) public {\n      addressToDb[_addr].dbAddress = \"\";\n      addressToDb[_addr].exists = false;\n  }\n}",
  "sourcePath": "/Users/kelu/ethereum/dPanc/contracts/contracts/dPanc.sol",
  "compiler": {
    "name": "solc",
    "version": "0.4.24+commit.e67f0147.Emscripten.clang"
  },
  "schemaVersion": "2.0.1",
  "updatedAt": "2018-10-10T01:28:23.846Z"
}